{
  "contractName": "HelloWorld",
  "abi": [
    {
      "inputs": [],
      "payable": false,
      "stateMutability": "nonpayable",
      "type": "constructor"
    },
    {
      "constant": true,
      "inputs": [],
      "name": "sayHelloWorld",
      "outputs": [
        {
          "name": "",
          "type": "string"
        }
      ],
      "payable": false,
      "stateMutability": "pure",
      "type": "function"
    }
  ],
  "bytecode": "0x608060405234801561001057600080fd5b50336000806101000a81548173ffffffffffffffffffffffffffffffffffffffff021916908373ffffffffffffffffffffffffffffffffffffffff160217905550610139806100606000396000f3fe60806040526004361061003b576000357c01000000000000000000000000000000000000000000000000000000009004806345773e4e14610040575b600080fd5b34801561004c57600080fd5b506100556100d0565b6040518080602001828103825283818151815260200191508051906020019080838360005b8381101561009557808201518184015260208101905061007a565b50505050905090810190601f1680156100c25780820380516001836020036101000a031916815260200191505b509250505060405180910390f35b60606040805190810160405280600b81526020017f48656c6c6f20576f726c6400000000000000000000000000000000000000000081525090509056fea165627a7a72305820b179568ef7aedf635503711afb2ab3a77efabd169666267f524655ab276ff7bb0029",
  "source": "pragma solidity 0.5.1;\r\n\r\ncontract HelloWorld {\r\n    address Owner;\r\n\r\n    constructor () public{\r\n        Owner=msg.sender;\r\n    }\r\n\r\n    function sayHelloWorld () public pure returns (string memory){\r\n        return(\"Hello World\");\r\n    }\r\n\r\n}\r\n\r\n",
  "sourcePath": "E:\\ethereum\\SUMMERGEC-WuBohan\\HelloWorld\\contracts\\HelloWorld.sol",
  "compiler": {
    "name": "solc",
    "version": "0.5.1+commit.c8a2cb62.Emscripten.clang"
  },
  "schemaVersion": "3.4.3",
  "updatedAt": "2021-08-24T10:05:49.103Z",
  "networkType": "ethereum",
  "devdoc": {
    "methods": {}
  },
  "userdoc": {
    "methods": {}
  }
}